:100000000C945E000C9486000C9486000C940E05F3
:100010000C940E050C940E050C9486000C94EA03C7
:100020000C9486000C9486000C9486000C941805A1
:100030000C9486000C9486000C9486000C94860028
:100040000C94C4040C9486000C9492040C946C04DC
:100050000C9486000C9486000C9486000C94860008
:100060000C9486000C948600000000080002010039
:100070000003040700000000000000000200000070
:1000800000250028002B0000000000240027002A83
:100090000004040404040404040202020202020331
:1000A000030303030301020408102040800102043B
:1000B00008102001020408102000D90511241FBED9
:1000C000CFEFD8E0DEBFCDBF11E0A0E0B1E0E2E6C7
:1000D000F5E102C005900D92AC31B107D9F723E0EC
:1000E000ACE1B1E001C01D92AD33B207E1F710E021
:1000F000CEE5D0E004C02197FE010E94A40ACD35D0
:10010000D107C9F70E943B060C94AF0A0C9400007B
:1001100090E0FC01EB55FF4F2491FC01EF56FF4F9F
:100120008491882399F090E0880F991FFC01E9578A
:10013000FF4FA591B491FC01E358FF4F8591949135
:100140008FB7F894EC91E22BEC938FBF0895CF9288
:10015000DF92EF92FF920F931F93CF93DF936C0187
:100160007A018B01C0E0D0E0CE15DF0589F0D8011F
:100170006D918D01D601ED91FC910190F081E02D02
:10018000C6010995892B11F47E0102C02196ECCF9E
:10019000C701DF91CF911F910F91FF90EF90DF90FA
:1001A000CF900895FC01538D448D252F30E0842F8E
:1001B00090E0821B930B541710F0CF96089501978F
:1001C0000895FC01918D828D981761F0828DDF0179
:1001D000A80FB11D5D968C91928D9F5F9F73928F3A
:1001E00090E008958FEF9FEF0895FC01918D828D2F
:1001F000981731F0828DE80FF11D858D90E00895FC
:100200008FEF9FEF0895FC01918D228D892F90E053
:10021000805C9F4F821B91098F73992708958EE50B
:1002200091E00E94030121E0892B09F420E0822F54
:100230000895FC01848DDF01A80FB11DA35ABF4FA3
:100240002C91848D90E001968F739927848FA689D5
:10025000B7892C93A089B1898C9180648C93938DFC
:10026000848D981306C00288F389E02D80818F7DEC
:1002700080830895EF92FF920F931F93CF93DF93A4
:10028000EC0181E0888F9B8D8C8D981305C0E889E7
:10029000F989808185FD24C0F62E0B8D10E00F5F5B
:1002A0001F4F0F731127E02E8C8DE8120CC00FB674
:1002B00007FCFACFE889F989808185FFF5CFCE0167
:1002C0000E941901F1CF8B8DFE01E80FF11DE35A59
:1002D000FF4FF0820B8FEA89FB898081806207C023
:1002E000EE89FF896083E889F98980818064808351
:1002F00081E090E0DF91CF911F910F91FF90EF90FF
:100300000895CF93DF93EC01888D8823C9F0EA89A3
:10031000FB89808185FD05C0A889B9898C9186FDFE
:100320000FC00FB607FCF5CF808185FFF2CFA889FB
:10033000B9898C9185FFEDCFCE010E941901E7CFDD
:10034000DF91CF91089580E090E0892B29F00E9401
:100350000F0181110C940000089590E0FC01E85910
:10036000FF4F3491FC01EB55FF4F2491FC01EF56F8
:10037000FF4FE491EE2309F43BC0332339F13330CE
:1003800091F038F43130A9F0323001F584B58F7D29
:1003900012C0373091F03830A1F03430B9F4809188
:1003A00080008F7D03C0809180008F7780938000D4
:1003B0000DC084B58F7784BD09C08091B0008F7760
:1003C00003C08091B0008F7D8093B000F0E0EE0F0D
:1003D000FF1FE358FF4FA591B4918FB7F894EC91AC
:1003E000611103C020952E2301C02E2B2C938FBFAB
:1003F00008953FB7F89480912F0190913001A0911A
:100400003101B091320126B5A89B05C02F3F19F0EC
:100410000196A11DB11D3FBFBA2FA92F982F882784
:10042000820F911DA11DB11DBC01CD0142E0660FDF
:10043000771F881F991F4A95D1F708958F929F9231
:10044000AF92BF92CF92DF92EF92FF926B017C014D
:100450000E94F9014B015C01C114D104E104F104D3
:10046000F1F00E94F901DC01CB0188199909AA0970
:10047000BB09883E9340A105B10570F321E0C21A83
:10048000D108E108F10888EE880E83E0981EA11CCF
:10049000B11CC114D104E104F10419F7DDCFFF90C0
:1004A000EF90DF90CF90BF90AF909F908F90089586
:1004B0002FB7F89460912B0170912C0180912D0140
:1004C00090912E012FBF0895089580E090E0089547
:1004D000CF92DF92EF92FF92CF93DF93EC016032E5
:1004E00082E078070CF03DC077FD06C0653B7105E2
:1004F0002CF064EB70E002C060E070E0898128E8D5
:1005000030E06901C81AD10887FDD394CC0CDD1CFA
:10051000CC0CDD1C0D2C000CEE08FF088A8128E5B0
:1005200032E0281B310987FD3395220F331F220F3C
:10053000331FC901330FAA0BBB0B9C01AD012C1952
:100540003D094E095F09DB010E944F0824EB30E0B2
:1005500040E050E00E942508C20ED31EE41EF51EA6
:10056000B60188818C3080F5998148E850E0491BBC
:10057000510997FD5395440F551F440F551F64179C
:10058000750784F09A8128E532E0291B310997FD2F
:100590003395220F331F220F331FAB012617370766
:1005A0000CF4A90142505109440F551F2FB7F8947C
:1005B00090E0FC01EE0FFF1F8E0F9F1FFC01E65C19
:1005C000FE4F528341832FBFDF91CF91FF90EF9079
:1005D000DF90CF9008950F931F93CF93DF931F92D7
:1005E000CDB7DEB78C01DC018C918C3008F055C0A2
:1005F000862F69830E948800F8018081E82FF0E04F
:100600009F01220F331FE20FF31FE65CFE4F69814B
:100610006F739081907C692B6083D80111961C9236
:10062000119712961C926CE00E94980ABCE08B9F76
:10063000B001112440E050E09A01260F371FF90164
:10064000EE0FFF1F2E0F3F1FF901E65CFE4F90815A
:1006500096FD16C04F5F5F4F4C30510569F7811111
:100660000FC01092800082E080938100109285007C
:1006700010928400B19A80916F00826080936F0025
:10068000D801EC91F0E0CF01880F991FE80FF91F16
:10069000E65CFE4F808180648083F80180810F904A
:1006A000DF91CF911F910F910895CF93DF93FC01BC
:1006B000208130E0F901EE0FFF1F2E0F3F1FF901DF
:1006C000E65CFE4F208126FD34C0EC010E94EB0267
:1006D0006AE570E0CE010E9468028EE190E09E8F94
:1006E0008D8F80ED97E098878F8380E090E0A4E87D
:1006F000B2E4898F9A8FAB8FBC8F8AE198EFA2EC1E
:10070000BDE38D8B9E8BAF8BB88F1F8E18A219A265
:100710001AA28DE290E09C838B83198A1A8A1B8A25
:100720001C8A19861A861B861C861E821D821FA2A1
:1007300018A6DF91CF91089560910A0370910B0381
:1007400087E092E00E94550360910C0370910D03C5
:1007500080E392E00E94550360910E0370910F03B5
:1007600089E592E00E945503609110037091110396
:1007700082E892E00C945503FC01909127019C3093
:10078000A0F481E0890F809327019083892F90E066
:10079000FC01EE0FFF1F8E0F9F1FFC01E65CFE4F5A
:1007A00088EB9BE09283818308958FEF8083089587
:1007B000DC01EC91F0E0CF01880F991FE80FF91FE1
:1007C000E65CFE4F808186FF02C08F7B80830895A8
:1007D0000E94AA0A1F920F920FB60F9211242F9314
:1007E0003F934F935F936F937F938F939F93AF93B9
:1007F000BF93EF93FF938091360190913701A091C1
:100800003801B0913901892B8A2B8B2B59F18091BA
:100810003501E0913301F091340190818927808383
:100820008091360190913701A0913801B091390142
:10083000181619061A061B060CF03DC080913601E9
:1008400090913701A0913801B09139010197A10928
:10085000B1098093360190933701A0933801B0938A
:10086000390129C080910001ECE7F0E0E4919FEFAD
:1008700090930001E130B9F098F0E230C9F4909122
:1008800070009D7F9093700091E09093B0009091E4
:10089000B100987F94609093B1001092B30008C0AB
:1008A00010926E0005C090916F009D7F90936F0035
:1008B00060E00E94AD01FF91EF91BF91AF919F91D8
:1008C0008F917F916F915F914F913F912F910F90F9
:1008D0000FBE0F901F9018951F920F920FB60F9298
:1008E00011242F933F934F935F936F937F938F9335
:1008F0009F93AF93BF93EF93FF938EE591E00E9498
:100900001901FF91EF91BF91AF919F918F917F91CD
:100910006F915F914F913F912F910F900FBE0F906C
:100920001F9018951F920F920FB60F9211242F93BC
:100930008F939F93EF93FF93E0916E01F0916F017E
:100940008081E0917401F091750182FD12C0908167
:10095000809177018F5F8F7320917801821751F01A
:10096000E0917701F0E0E25AFE4F958F8093770196
:1009700001C08081FF91EF919F918F912F910F90F6
:100980000FBE0F901F9018951F920F920FB60F92E7
:1009900011242F933F938F939F93AF93BF93809195
:1009A0002B0190912C01A0912D01B0912E0130913D
:1009B0002A0123E0230F2D3720F40196A11DB11D3C
:1009C00005C026E8230F0296A11DB11D20932A0120
:1009D00080932B0190932C01A0932D01B0932E01B5
:1009E00080912F0190913001A0913101B09132019D
:1009F0000196A11DB11D80932F0190933001A0930A
:100A00003101B0933201BF91AF919F918F913F918E
:100A10002F910F900FBE0F901F9018951F920F925D
:100A20000FB60F9211240F900FBE0F901F901895C4
:100A30001F920F920FB60F9211242F933F934F9353
:100A40005F936F937F938F939F93AF93BF93EF9336
:100A5000FF938091260187FF05C0109285001092B8
:100A600084001BC020912601022E000C330B8091C4
:100A7000270190E02817390784F480912601082E79
:100A8000000C990BFC01EE0FFF1F8E0F9F1FFC0146
:100A9000E65CFE4F808186FD15C0809126018F5F48
:100AA0008093260120912601022E000C330B8091A9
:100AB000270190E028173907C4F4809126018C3073
:100AC00064F113C080912601082E000C990BFC01E3
:100AD000EE0FFF1F8E0F9F1FFC01E65CFE4F808113
:100AE00060E08F730E94AD01D8CF80918400909117
:100AF0008500049680349C4918F480E49CE905C084
:100B00008091840090918500049690938900809351
:100B100088008FEF809326013BC0209184003091A4
:100B2000850080912601082E000C990BFC01EE0F28
:100B3000FF1F8E0F9F1FFC01E65CFE4F818192819B
:100B4000820F931F909389008093880080912601E3
:100B5000082E000C990BFC01EE0FFF1F8E0F9F1F3C
:100B6000FC01E65CFE4F808186FF12C08091260169
:100B7000082E000C990BFC01EE0FFF1F8E0F9F1F1C
:100B8000FC01E65CFE4F808161E08F730E94AD0145
:100B9000FF91EF91BF91AF919F918F917F916F9155
:100BA0005F914F913F912F910F900FBE0F901F902B
:100BB0001895CF93DF93109261011092600188EE37
:100BC00093E0A0E0B0E08093620190936301A09372
:100BD0006401B09365018DE091E090935F01809393
:100BE0005E0185EC90E090936B0180936A0184EC48
:100BF00090E090936D0180936C0180EC90E0909375
:100C00006F0180936E0181EC90E09093710180936D
:100C1000700182EC90E0909373018093720186ECF6
:100C200090E0909375018093740110927701109277
:100C300078011092790110927A01C7E0D2E0CE01DA
:100C40000E94BC03188A1F86A99682E0CB3AD80777
:100C5000B1F784E092E00E94BC0381E092E00E9440
:100C6000BC038EEF91E00E94BC038BEF91E0DF911B
:100C7000CF910C94BC03CF93DF93CDB7DEB72C9705
:100C80000FB6F894DEBF0FBECDBF789484B58260F6
:100C900084BD84B5816084BD85B5826085BD85B520
:100CA000816085BD80916E00816080936E0010929E
:100CB0008100809181008260809381008091810019
:100CC00081608093810080918000816080938000AA
:100CD0008091B10084608093B1008091B000816008
:100CE0008093B00080917A00846080937A00809134
:100CF0007A00826080937A0080917A00816080938C
:100D00007A0080917A00806880937A001092C10006
:100D100082E090E090930B0380930A0383E090E0DD
:100D200090930D0380930C0384E090E090930F0365
:100D300080930E0385E090E090931103809310035D
:100D40000E949C0310923C0357E0E52E52E0F52EE2
:100D500000E010E0C8010E941D08282F30E0213873
:100D600031050CF03A95F701308B27870F5F1F4F45
:100D7000F9E2EF0EF11C0430110561F78AE590E00D
:100D800090931B0380931A0390931D0380931C037D
:100D900090931F0380931E0390932103809320035D
:100DA0008DE090E090932303809322030E948800BB
:100DB00080913C038111F4C088E0E1E0F1E0DE01C4
:100DC000119601900D928A95E1F70E949C03809103
:100DD0003C03811110923C038E010F5F1F4F5E0197
:100DE00089E0A80EB11C3CE2E32E33E0F32E4AE189
:100DF000C42E43E0D42EF801619171918F01F60168
:100E0000819191916F01681B790B072E000C880B63
:100E1000990B0E949F0920E030E048E452E40E94D0
:100E2000F508F70161937193819391937F010A15FE
:100E30001B0509F70E945802DC01CB018C509E4F24
:100E4000AF4FBF4F8093240390932503A0932603B5
:100E5000B0932703EE24E394F12C0E9458020091F2
:100E60002403109125032091260330912703601756
:100E700071078207930708F068C00E945802DC01DE
:100E8000CB010A96A11DB11D8093280390932903DD
:100E9000A0932A03B0932B0307E012E08CE2C82E44
:100EA00083E0D82E9AE1292E93E0392E27010F2CCA
:100EB000000C66087708F101619171911F01F6013C
:100EC00021913191419151916F01072E000C880BB6
:100ED000990B29873A874B875C870E949F094B01B2
:100EE0005C01C301B2010E949F0929853A854B85A7
:100EF0005C850E942B0A9B01AC01C501B4010E94D4
:100F000089080E946709F80127853089620F731FDD
:100F1000C8010E946802075D1F4FFCE3CF16F3E093
:100F2000DF0649F60E945802009128031091290318
:100F300020912A0330912B036017710782079307D2
:100F400088F38FEFE81AF80A88CF89819A81909305
:100F50001B0380931A038B819C8190931D038093C4
:100F60001C038D819E8190931F0380931E038F81AC
:100F70009885909321038093200387E092E00E945C
:100F8000D80380E392E00E94D80389E592E00E94B2
:100F9000D80382E892E00E94D80381E080933C036A
:100FA00062E070E084E092E00E94EB0263E070E0B7
:100FB00081E092E00E94EB0264E070E08EEF91E04D
:100FC0000E94EB0265E070E08BEF91E00E94EB0283
:100FD0006AE570E084E092E00E94680260E070E000
:100FE000CB010E941E026AE570E081E092E00E945F
:100FF000680260E070E0CB010E941E026AE570E0CA
:101000008EEF91E00E94680260E070E0CB010E94E8
:101010001E026AE570E08BEF91E00E94680260E0DA
:1010200070E0CB010E941E0268EC70E080E090E06E
:101030000E941E020E94A301CBCFF999FECF92BD60
:1010400081BDF89A992780B50895052E97FB1EF467
:1010500000940E943C0857FD07D00E94570807FCE7
:1010600003D04EF40C943C08509540953095219552
:101070003F4F4F4F5F4F08959095809570956195C4
:101080007F4F8F4F9F4F08950E947908A59F900D25
:10109000B49F900DA49F800D911D11240895B7FF5A
:1010A0000C9444080E944408821B930B0895A1E20B
:1010B0001A2EAA1BBB1BFD010DC0AA1FBB1FEE1FD2
:1010C000FF1FA217B307E407F50720F0A21BB30B1D
:1010D000E40BF50B661F771F881F991F1A9469F799
:1010E00060957095809590959B01AC01BD01CF01F5
:1010F0000895A29FB001B39FC001A39F700D811DF1
:101100001124911DB29F700D811D1124911D089510
:101110005058BB27AA270E94A0080C94F1090E94EE
:10112000E30938F00E94EA0920F039F49F3F19F4EE
:1011300026F40C94E0090EF4E095E7FB0C94DA0930
:10114000E92F0E94020A58F3BA176207730784074F
:10115000950720F079F4A6F50C94240A0EF4E09596
:101160000B2EBA2FA02D0B01B90190010C01CA0161
:10117000A0011124FF27591B99F0593F50F4503E0C
:1011800068F11A16F040A22F232F342F4427585FFE
:10119000F3CF469537952795A795F0405395C9F716
:1011A0007EF41F16BA0B620B730B840BBAF09150CE
:1011B000A1F0FF0FBB1F661F771F881FC2F70EC06D
:1011C000BA0F621F731F841F48F487957795679540
:1011D000B795F7959E3F08F0B0CF9395880F08F02C
:1011E0009927EE0F9795879508950E9409090C9409
:1011F000F1090E94EA0958F00E94E30940F029F43D
:101200005F3F29F00C94DA0951110C94250A0C94D3
:10121000E0090E94020A68F39923B1F3552391F380
:10122000951B550BBB27AA2762177307840738F055
:101230009F5F5F4F220F331F441FAA1FA9F335D0B2
:101240000E2E3AF0E0E832D091505040E695001C66
:10125000CAF72BD0FE2F29D0660F771F881FBB1F20
:10126000261737074807AB07B0E809F0BB0B802DFE
:10127000BF01FF2793585F4F3AF09E3F510578F02A
:101280000C94DA090C94250A5F3FE4F3983ED4F3FA
:10129000869577956795B795F7959F5FC9F7880FFE
:1012A000911D9695879597F90895E1E0660F771F50
:1012B000881FBB1F621773078407BA0720F0621BE1
:1012C000730B840BBA0BEE1F88F7E09508950E940C
:1012D0006E096894B1110C94250A08950E940A0AB7
:1012E00088F09F5798F0B92F9927B751B0F0E1F0E7
:1012F000660F771F881F991F1AF0BA95C9F714C097
:10130000B13091F00E94240AB1E008950C94240AAF
:10131000672F782F8827B85F39F0B93FCCF38695CF
:1013200077956795B395D9F73EF49095809570952C
:1013300061957F4F8F4F9F4F0895E89409C097FBA9
:101340003EF490958095709561957F4F8F4F9F4F9C
:101350009923A9F0F92F96E9BB279395F6958795E0
:1013600077956795B795F111F8CFFAF4BB0F11F4A3
:1013700060FF1BC06F5F7F4F8F4F9F4F16C088234A
:1013800011F096E911C0772321F09EE8872F762F80
:1013900005C0662371F096E8862F70E060E02AF0C1
:1013A0009A95660F771F881FDAF7880F96958795AD
:1013B00097F9089597F99F6780E870E060E00895D5
:1013C0009FEF80EC089500240A941616170618065D
:1013D0000906089500240A94121613061406050639
:1013E0000895092E0394000C11F4882352F0BB0FCA
:1013F00040F4BF2B11F460FF04C06F5F7F4F8F4F2D
:101400009F4F089557FD9058440F551F59F05F3F67
:1014100071F04795880F97FB991F61F09F3F79F016
:1014200087950895121613061406551FF2CF469598
:10143000F1DF08C0161617061806991FF1CF86951A
:101440007105610508940895E894BB2766277727FE
:10145000CB0197F908950E943E0A0C94F1090E946D
:10146000E30938F00E94EA0920F0952311F00C946A
:10147000DA090C94E00911240C94250A0E94020A4E
:1014800070F3959FC1F3950F50E0551F629FF001D7
:10149000729FBB27F00DB11D639FAA27F00DB11DF0
:1014A000AA1F649F6627B00DA11D661F829F222779
:1014B000B00DA11D621F739FB00DA11D621F839F00
:1014C000A00D611D221F749F3327A00D611D231FD6
:1014D000849F600D211D822F762F6A2F11249F5724
:1014E00050409AF0F1F088234AF0EE0FFF1FBB1F27
:1014F000661F771F881F91505040A9F79E3F5105E6
:1015000080F00C94DA090C94250A5F3FE4F3983ECE
:10151000D4F3869577956795B795F795E7959F5F8F
:10152000C1F7FE2B880F911D9695879597F9089521
:10153000991B79E004C0991F961708F0961B881F25
:101540007A95C9F780950895EE0FFF1F0590F491E5
:10155000E02D099481E090E0F8940C94AF0AF8949F
:02156000FFCFBB
:10156200FF5A005A005A005A00000000003A01A730
:0C15720000D20081010301E100F500003F
:00000001FF
